:100000000C946F000C9497000C9497000C9497003C
:100010000C9497000C9497000C9497000C94970004
:100020000C9497000C9497000C9497000C949700F4
:100030000C9497000C9497000C9497000C949700E4
:100040000C94F8020C9497000C9468030C944203EF
:100050000C9497000C9497000C9497000C949700C4
:100060000C9497000C949700084AD73B3BCE016E46
:1000700084BCBFFDC12F3D6C74319ABD56833DDAFF
:100080003D00C77F11BED9E4BB4C3E916BAAAABE0E
:10009000000000803F072C7AA5BA6CC590DA3B932C
:1000A00065FC8BBC53F810FD3C5692834DBD879D7B
:1000B0003AB63DCBC9BF5BBE73DA0FC93F05A84C4A
:1000C000CDB2D44EB93836A9020C50B99186880801
:1000D0003CA6AAAA2ABE000000803F0009061124FF
:1000E0001FBECFEFD8E0DEBFCDBF11E0A0E0B1E092
:1000F000EAE5F4E102C005900D92A234B107D9F708
:1001000021E0A2E4B1E001C01D92A83EB207E1F7F0
:1001100010E0CFE6D0E004C02197FE010E94250A3E
:10012000CE36D107C9F70E949A030C942B0A0C947F
:1001300000003FB7F8948091470190914801A09149
:100140004901B0914A0126B5A89B05C02F3F19F07F
:100150000196A11DB11D3FBFBA2FA92F982F882747
:10016000BC01CD01620F711D811D911D42E0660F22
:10017000771F881F991F4A95D1F70895AF92BF92B4
:10018000CF92DF92EF92FF920F931F93CF93DF9363
:100190006C017B018B01040F151FEB015E01AE1892
:1001A000BF08C017D10759F06991D601ED91FC91B4
:1001B0000190F081E02DC6010995892B79F7C501E1
:1001C000DF91CF911F910F91FF90EF90DF90CF9033
:1001D000BF90AF900895FC01538D448D252F30E0E2
:1001E000842F90E0821B930B541710F0CF96089544
:1001F00001970895FC01918D828D981761F0A28D71
:10020000AE0FBF2FB11D5D968C91928D9F5F9F7336
:10021000928F90E008958FEF9FEF0895FC01918DEC
:10022000828D981731F0828DE80FF11D858D90E059
:1002300008958FEF9FEF0895FC01918D228D892FF6
:1002400090E0805C9F4F821B91098F7399270895DE
:100250008BE491E00E941C0121E0892B09F420E04D
:10026000822F089580E090E0892B29F00E942801D8
:1002700081110C9400000895FC01A48DA80FB92FE2
:10028000B11DA35ABF4F2C91848D90E001968F73BE
:100290009927848FA689B7892C93A089B1898C91DD
:1002A000837080648C93938D848D981306C002882C
:1002B000F389E02D80818F7D80830895EF92FF92F6
:1002C0000F931F93CF93DF93EC0181E0888F9B8D79
:1002D0008C8D98131AC0E889F989808185FF15C033
:1002E0009FB7F894EE89FF896083E889F989808156
:1002F0008370806480839FBF81E090E0DF91CF9125
:100300001F910F91FF90EF900895F62E0B8D10E046
:100310000F5F1F4F0F731127E02E8C8D8E110CC0B5
:100320000FB607FCFACFE889F989808185FFF5CF00
:10033000CE010E943C01F1CFEB8DEC0FFD2FF11DA2
:10034000E35AFF4FF0829FB7F8940B8FEA89FB893D
:1003500080818062CFCFCF93DF93EC01888D88239B
:10036000B9F0AA89BB89E889F9898C9185FD03C018
:10037000808186FD0DC00FB607FCF7CF8C9185FFFD
:10038000F2CF808185FFEDCFCE010E943C01E9CF05
:10039000DF91CF910895FC0101900020E9F731979A
:1003A000AF01481B590BBC018BE491E00C94BE00DB
:1003B0008F929F92AF92BF920F931F93CF93DF9331
:1003C000CDB7DEB7A1970FB6F894DEBF0FBECDBF95
:1003D00019A2423008F44AE08E010F5D1F4F842EAF
:1003E000912CB12CA12CA50194010E94030AE62FA7
:1003F000B901CA01EA30F4F4E05DD801EE938D0151
:10040000232B242B252B79F790E080E0109719F00F
:10041000CD010E94CB01A1960FB6F894DEBF0FBEAE
:10042000CDBFDF91CF911F910F91BF90AF909F9063
:100430008F900895E95CE1CF4F925F926F927F9227
:100440008F929F92AF92BF92CF92DF92EF92FF92E4
:100450000F931F93CF936B017C01742EAC019B0112
:100460000E94D509882399F082E191E0CF911F91F4
:100470000F91FF90EF90DF90CF90BF90AF909F9043
:100480008F907F906F905F904F900C94CB014601BE
:100490005701E894B7F82FEF3FEF4FE75FE7C5014B
:1004A000B4010E94D50981110DC02FEF3FEF4FE736
:1004B0005FE7C501B4010E94260718161CF486E107
:1004C00091E0D4CF2FEF3FEF4FE75FE4C701B601D4
:1004D0000E94090918161CF48AE191E0C7CF2FEF9A
:1004E0003FEF4FE75FECC701B6010E94260787FD8B
:1004F000F3CF20E030E0A901C701B6010E94260732
:1005000010E000E087FF0AC06DE28BE491E00E94FA
:100510005E018C01F7FAF094F7F8F094C0E060E027
:1005200070E080E09FE37C1641F020E030E040E2A4
:1005300051E40E943007CF5FF6CFA70196010E94D9
:1005400048062B013C010E94A2074B015C014AE0D6
:100550000E94D8017C01E00EF11ECC23C1F1C5013F
:10056000B4010E94D1079B01AC01C301B2010E94FA
:1005700047064B015C016EE28BE491E00E945E0154
:10058000E80EF91EC15018F120E030E040E251E4DD
:10059000C501B4010E9416092B013C010E94A2076B
:1005A0004B01B12CA12C4AE0C501B4010E94D80135
:1005B000E80EF91EC501B4010E94D1079B01AC01F0
:1005C000C301B2010E9447064B015C01DBCFC701AA
:1005D000CF911F910F91FF90EF90DF90CF90BF9040
:1005E000AF909F908F907F906F905F904F90089505
:1005F0001F920F920FB60F9211242F933F938F9358
:100600009F93AF93BF938091430190914401A09138
:100610004501B09146013091420123E0230F2D376F
:1006200058F50196A11DB11D20934201809343010D
:1006300090934401A0934501B093460180914701F6
:1006400090914801A0914901B0914A010196A11DE4
:10065000B11D8093470190934801A0934901B09345
:100660004A01BF91AF919F918F913F912F910F9030
:100670000FBE0F901F90189526E8230F0296A11D1C
:10068000B11DD2CF1F920F920FB60F9211242F934C
:100690003F934F935F936F937F938F939F93AF930A
:1006A000BF93EF93FF938BE491E00E943C01FF9195
:1006B000EF91BF91AF919F918F917F916F915F91DA
:1006C0004F913F912F910F900FBE0F901F90189553
:1006D0001F920F920FB60F9211242F938F939F9317
:1006E000EF93FF93E0915B01F0915C018081E091D9
:1006F0006101F091620182FD1BC0908180916401D3
:100700008F5F8F7320916501821741F0E091640142
:10071000F0E0E55BFE4F958F80936401FF91EF91D0
:100720009F918F912F910F900FBE0F901F90189552
:100730008081F4CFCF93DF93CDB7DEB72E970FB67E
:10074000F894DEBF0FBECDBF789484B5826084BDBF
:1007500084B5816084BD85B5826085BD85B58160C5
:1007600085BD80916E00816080936E001092810043
:1007700080918100826080938100809181008160FE
:1007800080938100809180008160809380008091BF
:10079000B10084608093B1008091B000816080934B
:1007A000B00080917A00846080937A0080917A0012
:1007B000826080937A0080917A00816080937A00D1
:1007C00080917A00806880937A001092C100E09155
:1007D0005B01F0915C0182E08083E0915701F09130
:1007E00058011082E0915901F0915A0180E1808313
:1007F00010926301E0915F01F091600186E08083D7
:10080000E0915D01F0915E01808180618083E091E3
:100810005D01F0915E01808188608083E0915D01DF
:10082000F0915E01808180688083E0915D01F091AC
:100830005E0180818F7D80830E9499004B015C0165
:1008400044EFC42EDD24D394E12CF12C0E949900B6
:10085000681979098A099B09683E734081059105E9
:10086000A8F321E0C21AD108E108F10888EE880E49
:1008700083E0981EA11CB11CC114D104E104F10451
:1008800029F78EE191E00E94CB018BE391E00E9479
:10089000CB0188EC90E09E878D87812C912C20E7FE
:1008A000A22E21E4B22EC12CD12CE12C30E4F32E67
:1008B000A7019601C701B6010E9416092B013C0150
:1008C000A5019401C501B4010E9416099B01AC0168
:1008D000C301B2010E94480620E030E048EC52E437
:1008E0000E94470620E030E048EC52E40E944706B0
:1008F00020E030E048E453E40E9430070E943606CE
:100900002B013C010E942B0769837A838B839C8394
:10091000C301B2010E9483096D837E838F83988710
:10092000A7019601C501B4010E94C70669877A87AD
:100930008B879C8720E030E040E251E469817A8136
:100940008B819C810E94160920E030E040E251E456
:100950000E94480669837A838B839C8320E030E081
:1009600040E251E46D817E818F8198850E94160955
:1009700029813A814B815C810E94C7069B01AC01B1
:1009800069857A858B859C850E94470669837A8371
:100990008B839C8346E0C701B6010E941C028EE354
:1009A00091E00E94CB0146E0C501B4010E941C0207
:1009B0008EE391E00E94CB0146E069817A818B81D0
:1009C0009C810E941C028EE391E00E94CB0146E0D4
:1009D000C301B2010E941C028EE391E00E94CB0190
:1009E00029813A814B815C816BED7FE089EC90E459
:1009F0000E944706A30192010E9447062BED3FE0AB
:100A000049EC5FE30E94470646E00E941C028BE32C
:100A100091E00E94CB0120E030E048E851E4C701BA
:100A2000B6010E9447062B013C019F772AE037ED73
:100A300043E25CE30E94260787FF11C020E030E01C
:100A400040E450E4C501B4010E9447069F772AE0C4
:100A500037ED43E25CE30E94260787FDCFC020E02C
:100A600030E0A901C301B2010E94090918160CF077
:100A700040C02AE037ED43E25CE3C301B2010E94CB
:100A8000260787FF41C020E030E0A901C701B60179
:100A90000E9448066B017C0120E030E040E85FE303
:100AA000C501B4010E9447064B015C0120E030E023
:100AB00048E851E4C701B6010E9447062B013C01FA
:100AC00020E030E0A9010E94090918160CF058C076
:100AD00020E030E040E85FE3C301B2010E94260756
:100AE00087FF59C0C12CD12C98E8E92E91E4F92E4A
:100AF00052C02AE037ED43E25CEBC301B2010E9431
:100B0000090918160CF4BFCF20E030E040EC50E4A7
:100B1000C501B4010E94260720E030E0A90187FF4B
:100B20000FC0C701B6010E9448066B017C0120E09E
:100B300030E040E85FE3C501B4010E944806B4CF4D
:100B4000C501B4010E9448064B015C0120E030E081
:100B500048E851E4C701B6010E94260720E030E0D2
:100B600040E85FE387FF07C0C701B6010E9448065F
:100B70006B017C019BCFC701B6010E944706F8CFED
:100B800020E030E040E85FEBC301B2010E940909B8
:100B900018160CF4A7CF20E030E040E450E4C50183
:100BA000B4010E9447062B013C0120E030E0A9017E
:100BB0000E940909181684F420E030E040E85FE361
:100BC000C301B2010E94260787FF10C0812C912C1F
:100BD00080E4A82EBA2C0AC020E030E040E85FEBA9
:100BE000C301B2010E940909181684F38D859E8500
:100BF00001979E878D87892B09F05ACE80E090E07F
:100C0000892BE1F30E9428018823C1F30E94000090
:100C1000F5CFEBE4F1E01382128288EE93E0A0E0DE
:100C2000B0E084839583A683B78384E091E09183C9
:100C3000808385EC90E09587848784EC90E09787AB
:100C4000868780EC90E0918B808B81EC90E0938B99
:100C5000828B82EC90E0958B848B86EC90E0978B76
:100C6000868B118E128E138E148E08959F939F770C
:100C70000E940E080F90002042F49058A2EA2AED3C
:100C80003FE049E450E40E945F060C94BB085058D2
:100C9000BB27AA270E945F060C94BB080E9482080B
:100CA00038F00E94890820F039F49F3F19F426F4A7
:100CB0000C9458080EF4E095E7FB0C945208E92FC9
:100CC0000E94E00858F3BA17620773078407950774
:100CD00020F079F4A6F50C9402090EF4E0950B2EA1
:100CE000BA2FA02D0B01B90190010C01CA01A0017E
:100CF0001124FF27591B99F0593F50F4503E68F1D9
:100D00001A16F040A22F232F342F4427585FF3CF19
:100D1000469537952795A795F0405395C9F77EF4EA
:100D20001F16BA0B620B730B840BBAF09150A1F033
:100D3000FF0FBB1F661F771F881FC2F70EC0BA0FB9
:100D4000621F731F841F48F4879577956795B79541
:100D5000F7959E3F08F0B0CF9395880F08F099273C
:100D6000EE0F9795879508950E94820860F080E8BD
:100D700091E009F49EEF0E94890828F040E851E0D4
:100D800071F45EEF0CC00C9458080C940209E92F22
:100D9000E0780E94E00840F3092E052AB1F32617F7
:100DA00037074807590738F00E2E07F8E02569F095
:100DB000E025E0640AC0EF6307F8009407FADB015E
:100DC000B9019D01DC01CA01AD01EF930E94470703
:100DD0000E94BB080E94F7065F91552339F02BED66
:100DE0003FE049E450FD49EC0C9448060895DF9338
:100DF000DD27B92FBF7740E85FE3161617064807CF
:100E00005B0718F4D92F0E940E099F938F937F934D
:100E10006F930E94D109E8E6F0E00E945B080E940F
:100E2000BB082F913F914F915F910E942909DD23CB
:100E300051F09058A2EA2AED3FE049EC5FE3D07808
:100E40005D270E945F06DF910C94BB080E942E086C
:100E500008F481E008950E949208E3950C94CC0870
:100E60000E9444070C94BB080E94890858F00E9415
:100E7000820840F029F45F3F29F00C945208511188
:100E80000C9403090C9458080E94E00868F3992315
:100E9000B1F3552391F3951B550BBB27AA27621776
:100EA0007307840738F09F5F5F4F220F331F441F83
:100EB000AA1FA9F335D00E2E3AF0E0E832D09150B7
:100EC0005040E695001CCAF72BD0FE2F29D0660FA4
:100ED000771F881FBB1F261737074807AB07B0E8E7
:100EE00009F0BB0B802DBF01FF2793585F4F3AF0ED
:100EF0009E3F510578F00C9452080C9403095F3F13
:100F0000E4F3983ED4F3869577956795B795F79572
:100F10009F5FC9F7880F911D9695879597F908955A
:100F2000E1E0660F771F881FBB1F621773078407F6
:100F3000BA0720F0621B730B840BBA0BEE1F88F705
:100F4000E09508950E94E80888F09F5798F0B92F1F
:100F50009927B751B0F0E1F0660F771F881F991FEE
:100F60001AF0BA95C9F714C0B13091F00E94020985
:100F7000B1E008950C940209672F782F8827B85F95
:100F800039F0B93FCCF3869577956795B395D9F746
:100F90003EF490958095709561957F4F8F4F9F4F50
:100FA0000895E89409C097FB3EF49095809570955C
:100FB00061957F4F8F4F9F4F9923A9F0F92F96E9A5
:100FC000BB279395F695879577956795B795F1111A
:100FD000F8CFFAF4BB0F11F460FF1BC06F5F7F4FB7
:100FE0008F4F9F4F16C0882311F096E911C07723C9
:100FF00021F09EE8872F762F05C0662371F096E8D2
:10100000862F70E060E02AF09A95660F771F881FA0
:10101000DAF7880F9695879597F90895DF93CF9320
:101020001F930F938B01EC01E5E9F0E00E945B0850
:101030000E94BB089801AE018B01EC0160E070E0FA
:1010400080E89FE30E9447060E9491099801AE0143
:101050000F911F91CF91DF910C942909990F0008EE
:10106000550FAA0BE0E8FEEF16161706E807F9077A
:10107000C0F012161306E407F50798F0621B730B15
:10108000840B950B39F40A2661F0232B242B252B96
:1010900021F408950A2609F4A140A6958FEF811D39
:1010A000811D089597F99F6780E870E060E00895DA
:1010B0009FEF80EC0895DF93CF931F930F93FF92E0
:1010C000EF92DF927B018C01689406C0DA2EEF016B
:1010D0000E942909FE01E894A59125913591459139
:1010E0005591A6F3EF010E945F06FE019701A8014A
:1010F000DA9469F7DF90EF90FF900F911F91CF91F5
:10110000DF91089500240A9416161706180609069A
:10111000089500240A94121613061406050608956D
:101120000C9458080E94E808D8F3E894E0E0BB2744
:101130009F57F0F02AED3FE049EC06C0EE0FBB0FE1
:10114000661F771F881F28F0B23A6207730784076B
:1011500028F0B25A620B730B840BE3959A9572F7E1
:10116000803830F49A95BB0F661F771F881FD2F71F
:1011700090480C94DC09092E0394000C11F4882388
:1011800052F0BB0F40F4BF2B11F460FF04C06F5F3F
:101190007F4F8F4F9F4F0895EF93E0FF07C0A2EA64
:1011A0002AED3FE049EC5FEB0E945F060E94BB081E
:1011B0000F90039401FC9058EDEBF0E00C94EF09D4
:1011C00057FD9058440F551F59F05F3F71F04795F8
:1011D000880F97FB991F61F09F3F79F087950895DD
:1011E000121613061406551FF2CF4695F1DF08C0FC
:1011F000161617061806991FF1CF86957105610519
:1012000008940895E894BB2766277727CB0197F9C0
:1012100008950E942E0808F48FEF08959B01AC01F9
:1012200060E070E080E89FE30C9430070E94290999
:101230000C94BB080E94820838F00E94890820F0B4
:10124000952311F00C9452080C94580811240C9416
:1012500003090E94E00870F3959FC1F3950F50E0D9
:10126000551F629FF001729FBB27F00DB11D639F58
:10127000AA27F00DB11DAA1F649F6627B00DA11DFE
:10128000661F829F2227B00DA11D621F739FB00DA4
:10129000A11D621F839FA00D611D221F749F332714
:1012A000A00D611D231F849F600D211D822F762FAD
:1012B0006A2F11249F5750409AF0F1F088234AF08A
:1012C000EE0FFF1FBB1F661F771F881F91505040F6
:1012D000A9F79E3F510580F00C9452080C94030925
:1012E0005F3FE4F3983ED4F3869577956795B7957D
:1012F000F795E7959F5FC1F7FE2B880F911D969597
:10130000879597F908959F930E9492080F9007FC84
:10131000EE5F0C94CC0819F416F40C9458080C9455
:10132000DA090E94E808B8F39923C9F3B6F39F5786
:10133000550B87FF0E94E8090024A0E640EA9001CF
:1013400080585695979528F4805C660F771F881F04
:1013500020F026173707480730F4621B730B840B05
:10136000202931294A2BA695179407942025312549
:101370004A2758F7660F771F881F20F02617370770
:10138000480730F4620B730B840B200D311D411D97
:10139000A09581F7B901842F9158880F969587956C
:1013A00008959B01AC010C9416090E942E08880B2D
:1013B000990B08959F3F31F0915020F487957795D0
:1013C0006795B795880F911D9695879597F908951C
:1013D00091505040660F771F881FD2F708959F9352
:1013E0008F937F936F93FF93EF939B01AC010E94C8
:1013F0001609EF91FF910E945B082F913F914F9149
:101400005F910C941609A1E21A2EAA1BBB1BFD01C9
:101410000DC0AA1FBB1FEE1FFF1FA217B307E407D3
:10142000F50720F0A21BB30BE40BF50B661F771F2B
:10143000881F991F1A9469F760957095809590950B
:101440009B01AC01BD01CF010895EE0FFF1F059078
:0A145000F491E02D0994F894FFCF09
:10145A00000000005E01BE00EB00AB011C01FA00B7
:10146A000E016E616E00696E66006F766600752CFD
:10147A0020762C207468657461312C207468657438
:10148A0061322C20746865746133000D0A002C20C7
:02149A00000050
:00000001FF
