:100000000C94BD000C94EE000C94EE000C94EE00E9
:100010000C94EE000C94EE000C94EE000C94EE00A8
:100020000C94EE000C94EE000C94EE000C94EE0098
:100030000C94EE000C94EE000C94EE000C94EE0088
:100040000C94EE000C94EE000C94EE000C94EE0078
:100050000C94EE000C94EE000C94EE000C947603DD
:100060000C94EE000C94EA030C94C0030C94EE0084
:100070000C94EE000C94EE000C94EE000C94EE0048
:100080000C94EE000C94EE000C94EE000C94EE0038
:100090000C94EE000C94EE000C94EE000C94EE0028
:1000A0000C94EE000C94EE000C94EE000C94EE0018
:1000B0000C94EE000C94EE000C94EE000C94EE0008
:1000C0000C94EE000C94EE000C94EE000C94EE00F8
:1000D0000C94EE000C94EE000C94EE000C94EE00E8
:1000E0000C94EE00084AD73B3BCE016E84BCBFFDAA
:1000F000C12F3D6C74319ABD56833DDA3D00C77FF8
:1001000011BED9E4BB4C3E916BAAAABE0000008090
:100110003F072C7AA5BA6CC590DA3B9365FC8BBC83
:1001200053F810FD3C5692834DBD879D3AB63DCBAA
:10013000C9BF5BBE73DA0FC93F05A84CCDB2D44E20
:10014000B93836A9020C50B9918688083CA6AAAAEB
:100150002ABE000000803F000C9415010C94F801A9
:100160000C9451010C9473010C9465010C94F405EA
:100170000C9442010C94AB01F40511241FBECFEF87
:10018000D1E2DEBFCDBF00E00CBF12E0A0E0B2E0E4
:10019000E4E3F4E100E00BBF02C007900D92A2344B
:1001A000B107D9F722E0A2E4B2E001C01D92A83E57
:1001B000B207E1F710E0CDEBD0E000E006C02197F8
:1001C0000109802FFE010E94100ACC3BD10780E07C
:1001D0000807A9F70E9420040C94180A0C94000048
:1001E0003FB7F8948091470290914802A09149024C
:1001F000B0914A0226B5A89B05C02F3F19F0019681
:10020000A11DB11D3FBFBA2FA92F982F8827BC0170
:10021000CD01620F711D811D911D42E0660F771F98
:10022000881F991F4A95D1F70895AF92BF92CF9238
:10023000DF92EF92FF920F931F93CF93DF936C01A6
:100240007B018B01040F151FEB015E01AE18BF0887
:10025000C017D10759F06991D601ED91FC91019039
:10026000F081E02DC6011995892B79F7C501DF9141
:10027000CF911F910F91FF90EF90DF90CF90BF90A3
:10028000AF900895FC01538D448D252F30E0842FCD
:1002900090E0821B930B541710F0CF9608950197AE
:1002A0000895FC01918D828D981761F0A28DAE0F9B
:1002B000BF2FB11D5D968C91928D9F5F9F73928F22
:1002C00090E008958FEF9FEF0895FC01918D828D4E
:1002D000981731F0828DE80FF11D858D90E008951B
:1002E0008FEF9FEF0895FC01918D228D892F90E073
:1002F000805C9F4F821B91098F73992708958BE42F
:1003000092E00E94730121E0892B09F420E0822F02
:100310000895FC01A48DA80FB92FB11DA35ABF4F9A
:100320002C91848D90E001968F739927848FA689F4
:10033000B7892C93A089B1898C91837080648C9348
:10034000938D848D981306C00288F389E02D8081F7
:100350008F7D80830895EF92FF920F931F93CF9329
:10036000DF93EC0181E0888F9B8D8C8D98131AC0F0
:10037000E889F989808185FF15C09FB7F894EE89D7
:10038000FF896083E889F989808183708064808334
:100390009FBF81E090E0DF91CF911F910F91FF907F
:1003A000EF900895F62E0B8D10E00F5F1F4F0F7327
:1003B0001127E02E8C8D8E110CC00FB607FCFACFE2
:1003C000E889F989808185FFF5CFCE010E948901F6
:1003D000F1CFEB8DEC0FFD2FF11DE35AFF4FF082B3
:1003E0009FB7F8940B8FEA89FB8980818062CFCF19
:1003F000CF93DF93EC01888D8823B9F0AA89BB895C
:10040000E889F9898C9185FD03C0808186FD0DC046
:100410000FB607FCF7CF8C9185FFF2CF808185FF67
:10042000EDCFCE010E948901E9CFDF91CF910895F0
:1004300080E090E0892B29F00E947F0181110E94C9
:10044000000080E090E0892B49F080E090E0892B6B
:1004500029F00E94000081110E94000080E090E0DD
:10046000892B49F080E090E0892B29F00E94000060
:1004700081110E94000080E090E0892B49F080E02B
:1004800090E0892B29F00E94000081110C9400005B
:100490000895FC0101900020E9F73197AF01481B56
:1004A000590BBC018BE492E00C9415018F929F9242
:1004B000AF92BF920F931F93CF93DF93CDB7DEB769
:1004C000A1970FB6F894DEBF0FBECDBF19A2423080
:1004D00008F44AE08E010F5D1F4F842E912CB12C41
:1004E000A12CA50194010E94EE09E62FB901CA01D1
:1004F000EA30F4F4E05DD801EE938D01232B242B38
:10050000252B79F790E080E0109719F0CD010E943B
:100510004902A1960FB6F894DEBF0FBECDBFDF91A2
:10052000CF911F910F91BF90AF909F908F900895A2
:10053000E95CE1CF4F925F926F927F928F929F9290
:10054000AF92BF92CF92DF92EF92FF920F931F93E1
:10055000CF936B017C01742EAC019B010E94C009FA
:10056000882399F082E192E0CF911F910F91FF9043
:10057000EF90DF90CF90BF90AF909F908F907F9043
:100580006F905F904F900C94490246015701E89498
:10059000B7F82FEF3FEF4FE75FE7C501B4010E94C7
:1005A000C00981110DC02FEF3FEF4FE75FE7C50195
:1005B000B4010E94110718161CF486E192E0D4CF12
:1005C0002FEF3FEF4FE75FE4C701B6010E94F40849
:1005D00018161CF48AE192E0C7CF2FEF3FEF4FE7E8
:1005E0005FECC701B6010E94110787FDF3CF20E041
:1005F00030E0A901C701B6010E94110710E000E038
:1006000087FF0AC06DE28BE492E00E94AB018C018F
:10061000F7FAF094F7F8F094C0E060E070E080E062
:100620009FE37C1641F020E030E040E251E40E947C
:100630001B07CF5FF6CFA70196010E9433062B015F
:100640003C010E948D074B015C014AE00E9456026A
:100650007C01E00EF11ECC23C1F1C501B4010E9462
:10066000BC079B01AC01C301B2010E9432064B01E1
:100670005C016EE28BE492E00E94AB01E80EF91E91
:10068000C15018F120E030E040E251E4C501B4016E
:100690000E9401092B013C010E948D074B01B12CE6
:1006A000A12C4AE0C501B4010E945602E80EF91ED1
:1006B000C501B4010E94BC079B01AC01C301B2019A
:1006C0000E9432064B015C01DBCFC701CF911F9125
:1006D0000F91FF90EF90DF90CF90BF90AF909F90E1
:1006E0008F907F906F905F904F9008951F920F9220
:1006F0000FB60F9211242F933F938F939F93AF9335
:10070000BF938091430290914402A0914502B09121
:1007100046023091420223E0230F2D3758F501960F
:10072000A11DB11D20934202809343029093440285
:10073000A0934502B09346028091470290914802EF
:10074000A0914902B0914A020196A11DB11D80936A
:10075000470290934802A0934902B0934A02BF9186
:10076000AF919F918F913F912F910F900FBE0F905E
:100770001F90189526E8230F0296A11DB11DD2CF18
:100780001F920F920FB60F9211240BB60F922F9358
:100790003F934F935F936F937F938F939F93AF9309
:1007A000BF93EF93FF938BE492E00E948901FF9146
:1007B000EF91BF91AF919F918F917F916F915F91D9
:1007C0004F913F912F910F900BBE0F900FBE0F9046
:1007D0001F9018951F920F920FB60F9211240BB60F
:1007E0000F922F938F939F93EF93FF93E0915B0270
:1007F000F0915C028081E0916102F091620282FDE1
:100800001DC09081809164028F5F8F73209165027B
:10081000821741F0E0916402F0E0E55BFD4F958FB7
:1008200080936402FF91EF919F918F912F910F9090
:100830000BBE0F900FBE0F901F9018958081F2CFC6
:10084000CF93DF9300D000D000D01F92CDB7DEB79A
:10085000789484B5826084BD84B5816084BD85B59B
:10086000826085BD85B5816085BD80916E008160A7
:1008700080936E001092810080918100826080934D
:10088000810080918100816080938100809180004F
:100890008160809380008091B10084608093B1007A
:1008A0008091B00081608093B0008091910082605F
:1008B000809391008091910081608093910080915C
:1008C00090008160809390008091A100826080936D
:1008D000A1008091A10081608093A1008091A0007F
:1008E00081608093A000809121018260809321012A
:1008F000809121018160809321018091200181609C
:100900008093200180917A00846080937A008091A6
:100910007A00826080937A0080917A00816080936F
:100920007A0080917A00806880937A001092C100EA
:10093000E0915B02F0915C0282E08083E0915702DB
:10094000F09158021082E0915902F0915A0280E130
:10095000808310926302E0915F02F091600286E072
:100960008083E0915D02F0915E02808180618083EE
:10097000E0915D02F0915E02808188608083E09169
:100980005D02F0915E02808180688083E0915D026B
:10099000F0915E0280818F7D80830E94F0004B0188
:1009A0005C0124EFC22EDD24D394E12CF12C0E94B3
:1009B000F000681979098A099B09683E734081052E
:1009C0009105A8F321E0C21AD108E108F10888EEE8
:1009D000880E83E0981EA11CB11CC114D104E1044F
:1009E000F10429F78EE192E00E9449028BE392E044
:1009F0000E94490288EC90E09A878987C12CD12C0B
:100A000090E7E92E91E4F92EA7019601C701B601FE
:100A10000E94010920E030E048EC51E40E943306D6
:100A200020E030E048EC52E40E94320620E030E062
:100A300048EC52E40E94320620E030E048E453E4FF
:100A40000E941B070E9421064B015C010E941607B1
:100A50002B013C01C501B4010E946E0969837A83B0
:100A60008B839C8320E030E040EA50E4C701B6016C
:100A70000E94B2066D837E838F83988720E030E0EA
:100A800040E251E4C301B2010E94010920E030E0DC
:100A900040E251E40E9433062B013C0120E030E0AB
:100AA00040E251E469817A818B819C810E94010935
:100AB000A30192010E94B2069B01AC016D817E816F
:100AC0008F8198850E9432062B013C0146E060E050
:100AD00070E080EA90E40E949A028EE392E00E9425
:100AE000490246E0C701B6010E949A028EE392E0F5
:100AF0000E94490246E0C301B2010E949A028EE3BD
:100B000092E00E94490246E0C501B4010E949A02A7
:100B10008EE392E00E944902A30192016BED7FE017
:100B200089EC90E40E943206A50194010E943206ED
:100B30002BED3FE049EC5FE30E94320646E00E9465
:100B40009A028BE392E00E94490220E030E040E408
:100B500050E4C701B6010E9432069F772AE037EDC4
:100B600043E25CE30E94110787FD3BC020E030E0D8
:100B700040E85FE3C701B6010E9432066B017C01C9
:100B800020E030E040E450E40E9432064B015C017A
:100B900020E030E0A9010E94F408181684F420E057
:100BA00030E040E85FE3C501B4010E94110787FF10
:100BB00010C0C12CD12C80E4E82EFE2C0AC020E00D
:100BC00030E040E85FEBC501B4010E94F40818165C
:100BD00084F389859A8501979A878987892B09F0FB
:100BE00013CF0E941802FDCFEBE4F2E013821282D1
:100BF00088EE93E0A0E0B0E084839583A683B7837A
:100C000084E092E09183808385EC90E095878487EF
:100C100084EC90E09787868780EC90E0918B808BC6
:100C200081EC90E0938B828B82EC90E0958B848BAF
:100C300086EC90E0978B868B118E128E138E148E1D
:100C400008959F939F770E94F9070F90002042F428
:100C50009058A2EA2AED3FE049E450E40E944A0697
:100C60000C94A6085058BB27AA270E944A060C9449
:100C7000A6080E946D0838F00E94740820F039F42C
:100C80009F3F19F426F40C9443080EF4E095E7FB1B
:100C90000C943D08E92F0E94CB0858F3BA1762075D
:100CA00073078407950720F079F4A6F50C94ED08F6
:100CB0000EF4E0950B2EBA2FA02D0B01B901900177
:100CC0000C01CA01A0011124FF27591B99F0593FBB
:100CD00050F4503E68F11A16F040A22F232F342F03
:100CE0004427585FF3CF469537952795A795F04051
:100CF0005395C9F77EF41F16BA0B620B730B840B66
:100D0000BAF09150A1F0FF0FBB1F661F771F881F1D
:100D1000C2F70EC0BA0F621F731F841F48F4879575
:100D200077956795B795F7959E3F08F0B0CF939567
:100D3000880F08F09927EE0F9795879508950E94E0
:100D40006D0860F080E891E009F49EEF0E9474085D
:100D500028F040E851E071F45EEF0CC00C944308B9
:100D60000C94ED08E92FE0780E94CB0840F3092E9F
:100D7000052AB1F3261737074807590738F00E2E12
:100D800007F8E02569F0E025E0640AC0EF6307F8A2
:100D9000009407FADB01B9019D01DC01CA01AD0134
:100DA000EF930E9432070E94A6080E94E2065F911C
:100DB000552339F02BED3FE049E450FD49EC0C940C
:100DC00033060895DF93DD27B92FBF7740E85FE34F
:100DD0001616170648075B0718F4D92F0E94F90862
:100DE0009F938F937F936F930E94BC09E4EEF0E092
:100DF0000E9446080E94A6082F913F914F915F9153
:100E00000E941409DD2351F09058A2EA2AED3FE038
:100E100049EC5FE3D0785D270E944A06DF910C948D
:100E2000A6080E94190808F481E008950E947D0830
:100E3000E3950C94B7080E942F070C94A6080E9413
:100E4000740858F00E946D0840F029F45F3F29F0C3
:100E50000C943D0851110C94EE080C9443080E9428
:100E6000CB0868F39923B1F3552391F3951B550BE8
:100E7000BB27AA2762177307840738F09F5F5F4F6D
:100E8000220F331F441FAA1FA9F335D00E2E3AF0AC
:100E9000E0E832D091505040E695001CCAF72BD0C4
:100EA000FE2F29D0660F771F881FBB1F2617370715
:100EB0004807AB07B0E809F0BB0B802DBF01FF2747
:100EC00093585F4F3AF09E3F510578F00C943D08DF
:100ED0000C94EE085F3FE4F3983ED4F38695779543
:100EE0006795B795F7959F5FC9F7880F911D969500
:100EF000879597F90895E1E0660F771F881FBB1F5C
:100F0000621773078407BA0720F0621B730B840B08
:100F1000BA0BEE1F88F7E09508950E94D30888F079
:100F20009F5798F0B92F9927B751B0F0E1F0660FAD
:100F3000771F881F991F1AF0BA95C9F714C0B130EE
:100F400091F00E94ED08B1E008950C94ED08672F30
:100F5000782F8827B85F39F0B93FCCF3869577951D
:100F60006795B395D9F73EF4909580957095619506
:100F70007F4F8F4F9F4F0895E89409C097FB3EF431
:100F800090958095709561957F4F8F4F9F4F9923D6
:100F9000A9F0F92F96E9BB279395F6958795779554
:100FA0006795B795F111F8CFFAF4BB0F11F460FF14
:100FB0001BC06F5F7F4F8F4F9F4F16C0882311F06C
:100FC00096E911C0772321F09EE8872F762F05C080
:100FD000662371F096E8862F70E060E02AF09A951B
:100FE000660F771F881FDAF7880F9695879597F910
:100FF0000895DF93CF931F930F938B01EC01E1E1F1
:10100000F1E00E9446080E94A6089801AE018B01FB
:10101000EC0160E070E080E89FE30E9432060E94ED
:101020007C099801AE010F911F91CF91DF910C9433
:101030001409990F0008550FAA0BE0E8FEEF1616E9
:101040001706E807F907C0F012161306E407F507BC
:1010500098F0621B730B840B950B39F40A2661F030
:10106000232B242B252B21F408950A2609F4A140D3
:10107000A6958FEF811D811D089597F99F6780E8E0
:1010800070E060E008959FEF80EC0895DF93CF93C8
:101090001F930F93FF92EF92DF927B018C01689474
:1010A00006C0DA2EEF010E941409FE01E894A59112
:1010B0002591359145915591A6F3EF010E944A067D
:1010C000FE019701A801DA9469F7DF90EF90FF9095
:1010D0000F911F91CF91DF91089500240A94161665
:1010E000170618060906089500240A941216130616
:1010F0001406050608950C9443080E94D308D8F3FB
:10110000E894E0E0BB279F57F0F02AED3FE049EC80
:1011100006C0EE0FBB0F661F771F881F28F0B23A7C
:1011200062077307840728F0B25A620B730B840BB3
:10113000E3959A9572F7803830F49A95BB0F661F45
:10114000771F881FD2F790480C94C709092E039483
:10115000000C11F4882352F0BB0F40F4BF2B11F4A4
:1011600060FF04C06F5F7F4F8F4F9F4F0895EF93D5
:10117000E0FF07C0A2EA2AED3FE049EC5FEB0E94E6
:101180004A060E94A6080F90039401FC9058E9E3D8
:10119000F1E00C94DA0957FD9058440F551F59F0AF
:1011A0005F3F71F04795880F97FB991F61F09F3F54
:1011B00079F087950895121613061406551FF2CF7D
:1011C0004695F1DF08C0161617061806991FF1CFCD
:1011D00086957105610508940895E894BB276627F4
:1011E0007727CB0197F908950E94190808F48FEF2B
:1011F00008959B01AC0160E070E080E89FE30C94EF
:101200001B070E9414090C94A6080E946D0838F070
:101210000E94740820F0952311F00C943D080C9462
:10122000430811240C94EE080E94CB0870F3959F9C
:10123000C1F3950F50E0551F629FF001729FBB27CD
:10124000F00DB11D639FAA27F00DB11DAA1F649F69
:101250006627B00DA11D661F829F2227B00DA11D1C
:10126000621F739FB00DA11D621F839FA00D611DA2
:10127000221F749F3327A00D611D231F849F600DC3
:10128000211D822F762F6A2F11249F5750409AF0EC
:10129000F1F088234AF0EE0FFF1FBB1F661F771F78
:1012A000881F91505040A9F79E3F510580F00C9443
:1012B0003D080C94EE085F3FE4F3983ED4F3869526
:1012C00077956795B795F795E7959F5FC1F7FE2BE3
:1012D000880F911D9695879597F908959F930E9481
:1012E0007D080F9007FCEE5F0C94B70819F416F414
:1012F0000C9443080C94C5090E94D308B8F39923B1
:10130000C9F3B6F39F57550B87FF0E94D3090024FA
:10131000A0E640EA900180585695979528F4805CA5
:10132000660F771F881F20F026173707480730F40D
:10133000621B730B840B202931294A2BA695179425
:101340000794202531254A2758F7660F771F881FF5
:1013500020F026173707480730F4620B730B840B15
:10136000200D311D411DA09581F7B901842F9158A1
:10137000880F9695879508959B01AC010C940109FF
:101380000E941908880B990B08959F3F31F09150E6
:1013900020F4879577956795B795880F911D969559
:1013A000879597F9089591505040660F771F881FD1
:1013B000D2F708959F938F937F936F93FF93EF934B
:1013C0009B01AC010E940109EF91FF910E94460828
:1013D0002F913F914F915F910C940109A1E21A2E38
:1013E000AA1BBB1BFD010DC0AA1FBB1FEE1FFF1FC9
:1013F000A217B307E407F50720F0A21BB30BE40B19
:10140000F50B661F771F881F991F1A9469F760955F
:101410007095809590959B01AC01BD01CF01089519
:10142000EE0FFF1F881F8BBF0790F691E02D1994D8
:04143000F894FFCF5E
:1014340000000000AB0115014201F80173015101E4
:1014440065016E616E00696E66006F766600752CCC
:1014540020762C207468657461312C20746865745E
:1014640061322C20746865746133000D0A002C20ED
:02147400000076
:00000001FF
